:020000040800F2
:10000000A0620020610200086D3E0008AB380008C5
:10001000353B0008570700089D6D000800000000F0
:10002000000000000000000000000000A101000826
:10003000630A000800000000FD010008714100088B
:100040007B0200087B0200087B0200087B0200089C
:100050007B0200087B0200087B0200087B0200088C
:100060007B0200087B0200087B0200087B0200087C
:100070007B020008490900087B0200087B02000897
:100080007B0200087B0200087B0200086D07000865
:100090005D0700087B0200087B0200087B02000865
:1000A0007B0200087B0200087B0200087B0200083C
:1000B0006D4200087B0200087B0200087B020008FA
:1000C0007B0200087B0200087B0200087B0200081C
:1000D0007B0200087B0200087B0200087B0200080C
:1000E0007B0200087B0200087B0200087B020008FC
:1000F0007B0200087B0200087B0200087B020008EC
:100100007B0200087B0200087B0200087B020008DB
:10011000E54300087B0200087B0200087B02000820
:100120007B0200087B0200087B0200087B020008BB
:100130007B0200087B0200087B0200088D07000894
:100140007B0200087D0700087B020008713E000862
:100150007B0200087B0200087B0200087B0200088B
:100160007B0200087B0200087B0200087B0200087B
:100170007B0200087B0200087B02000800000000F0
:100180007B0200087B020008DFF810D000F0A6FA1E
:100190000048004745710008AFF30080A0620020CE
:1001A0002C4B19680868B0E8F04F80F30988BFF35A
:1001B0006F8F4FF0000080F311887047000000003F
:1001C00008480068006880F308884FF0000080F35A
:1001D000148862B661B6BFF34F8FBFF36F8F00DF35
:1001E00000BF00BF08ED00E0DFF80C00016841F43B
:1001F00070010160704700BF88ED00E0EFF30980F7
:10020000BFF36F8F134B1A681EF0100F08BF20ED5D
:10021000108A20E9F04F106009B44FF0500080F3CD
:100220001188BFF34F8FBFF36F8F07F08BFD4FF037
:10023000000080F3118809BC19680868B0E8F04F25
:100240001EF0100F08BFB0EC108A80F30988BFF3CE
:100250006F8F704740000020EFF30580704700006B
:100260000648804706480047FEE7FEE7FEE7FEE750
:10027000FEE7FEE7FEE7FEE7FEE7FEE7594200087D
:10028000890100082DE9F05F0546002092469B4653
:1002900088460646814640241BE02846414647469C
:1002A000224600F09CF953465A46C01A914110D399
:1002B00011461846224600F083F92D1A67EB010813
:1002C0004F4622460120002100F07AF917EB000981
:1002D0004E41201EA4F10104DFDC484631462A4687
:1002E0004346BDE8F09F40EA01039B0703D009E0C5
:1002F00008C9121F08C0042AFAD203E011F8013B12
:1003000000F8013B521EF9D27047D2B201E000F86A
:10031000012B491EFBD270470022F6E710B51346A9
:100320000A4604461946FFF7F0FF204610BD2DE9A6
:10033000FE4F804681EA0300C00F0C46009021F07A
:10034000004123F00045B8EB0200A94105D2404628
:10035000214690461C460B46024623F000401043BF
:1003600047D0270DC7F30A00C3F30A510290401A81
:10037000019040286BDAC3F3130040F4801B00980F
:10038000924620B10023D2EB030A63EB0B0B0198DA
:100390005946C0F14002504600F012F906460D469B
:1003A00050465946019A00F02AF910EB08006141C5
:1003B000002487EA115284EAE7731A4340D0009A76
:1003C00062B3019A012A4FEA075215DC001B61EB68
:1003D00002014FF0004202EA0752CDE90042001C40
:1003E00041F5801132462B4600F02AF903B0BDE8F2
:1003F000F08F40462146F9E7001B61EB0201001C2B
:1004000041F5801300185B412018A2F5001747EB57
:10041000030140EAD570B6196D4111E06D084FEA4D
:10042000360645EAC0754FEA0752001B61EB020130
:10043000001C41F5801149084FEA30000019514174
:1004400032462B4603B0BDE8F04F00F0EAB8009802
:10045000012240000023D0EB020263EBE07300981E
:1004600021464FEAE074B8EB000061EB0401E9E7D4
:1004700083F000435BE781F0004158E72DE9FE4F30
:1004800081EA030404F0004421F0004100944FF09D
:10049000000B23F0004350EA01045ED052EA03044B
:1004A0005BD0C3F30A54C1F30A552C44A4F2F334CD
:1004B0000194A0FB0254C1F3130141F48011C3F372
:1004C000130343F4801301FB024400FB034E840A30
:1004D000970A44EA815447EA8357A4FB07680295C8
:1004E0008D0A05FB07854FEA932C04FB0C54270566
:1004F000029D4FEA065847EA1637B5EB08056EEB42
:10050000070C870E920E47EA811742EA8312A7FB77
:100510000201B6EB0B0164EB00042B0D43EA0C3334
:100520005E1844EB1C50DA465146E7FB0201C5F366
:1005300013044FEA0B3343EA14534FEA0432019C8D
:1005400043EA0603A4F10C040294009CCDE900B434
:1005500000F076F803B0BDE8F08F00200146F9E71F
:100560000EB5C10F80EAE0700844CA07002140F2CE
:1005700033438DE80E000A460B4600F061F803B0E5
:1005800000BD70B5C1F30A5201F000450024C1F36B
:10059000130140F2FF3341F480119A4201DA002046
:1005A00070BD40F233439A42A2F2334203DC52421E
:1005B00000F015F800E090402C43F1D0404270BDAF
:1005C000202A04DB203A00FA02F100207047914013
:1005D000C2F1200320FA03F3194390407047202A08
:1005E00004DB203A21FA02F00021704721FA02F3DD
:1005F000D040C2F120029140084319467047202A9A
:1006000006DBCB17203A41FA02F043EAE07306E03A
:1006100041FA02F3D040C2F120029140084319464A
:10062000704710B5141E73F1000408DA401C41F144
:10063000000192185B411A4301D120F0010010BD66
:100640002DE9F04D92469B4611B1B1FA81F202E0DC
:10065000B0FA80F220329046FFF7B2FF04460F4610
:1006600040EA0A0041EA0B0153465A46084313D0B8
:10067000114653EA010019D0C8F140025046FFF775
:10068000AEFF05460E46504659464246FFF798FFD4
:10069000084305D0012004E020463946BDE8F08D2E
:1006A0000020054346EAE0762C4337430A98630569
:1006B000E40AA0EB08000022FD0A44EA47540A308D
:1006C00002D500200146E9E7010510196941DDE97D
:1006D000084500196941BDE8F04DA2E7064C074DF9
:1006E00006E0E06840F0010394E807009847103402
:1006F000AC42F6D3FFF74CFD1086000830860008A8
:1007000070B58C1810F8015B15F0070301D110F8D3
:10071000013B2A1106D110F8012B03E010F8016B00
:1007200001F8016B5B1EF9D12B0705D40023521E83
:100730000DD401F8013BFAE710F8013BCB1A921CEB
:1007400003E013F8015B01F8015B521EF9D5A142E9
:10075000D8D3002070BD00BFFEE7000010B50248EE
:1007600000F03FFB10BD00005404002010B502480B
:1007700000F037FB10BD00005404002010B5024803
:1007800000F02FFB10BD00007C04002010B50248D3
:1007900000F027FB10BD00007C0400207CB506465D
:1007A0000C46154607A103C9CDE9000125708DF857
:1007B0000050608840F001016A46304600F054F86D
:1007C0007CBD000000555555555555557CB5054621
:1007D0000C4605A103C9CDE9000161886A46284697
:1007E00000F042F87CBD00005555555555555555FE
:1007F0007CB505460C46B4F904001849884202DA73
:100800004EF67840A080B4F9040041F28831884265
:1008100001DD0846A080B4F90400002801DB014690
:1008200000E0414209B2A1800DA103C9CDE9000158
:10083000A088000A8DF8000020798DF80100208939
:10084000000A8DF80200207A8DF80300608840F0DD
:1008500004016A46284600F007F87CBD78ECFFFFEB
:100860000000000055555555F0B587B005460C46BB
:1008700016461822084901A8FFF735FD019400200B
:1008800000906B46324601A9284600F072F90746EF
:10089000384607B0F0BD0000B082000804284FF0D1
:1008A000000070470020704710B500220449054839
:1008B00004F01CFB0449034804F00AFB002010BDAF
:1008C0009C4F0020C04200209C47002070B5044689
:1008D0000D462146054804F0FBFA044804F0C8FA26
:1008E0002946204606F071FB002070BDC042002062
:1008F0000020704710B58AB0044600200690012001
:100900000790002000900190029003900E20099023
:100910000B492068884202D10020059004900949C3
:100920002068884203D10E20059001200490012008
:1009300008906946204600F0C1F90AB010BD0000D9
:10094000006400400068004010B5024800F090FDCF
:1009500010BD0000EC040020014608781038182370
:10096000B0FBF3F20848805CC865032A05D9086823
:100970006FF30900001D886503E008686FF3090044
:100980008865886D70470000E485000801460020F6
:100990008A6A8B69CBB932B1012A0DD0022A03D001
:1009A000032A10D10EE000BFCB6A03F08073B3F1CD
:1009B000807F00D1012007E0CB6AB3F1C07F00D176
:1009C000012001E000E000BF34E08B69B3F5005F77
:1009D0001AD132B1012A07D0022A03D0032A11D139
:1009E0000AE000BF01200EE0CB6A03F08073B3F190
:1009F000807F00D1012006E0CB6AB3F1C07F00D137
:100A0000012000E000BF15E032B1012A05D0022A22
:100A100004D0032A0CD103E000BF00BF012008E08E
:100A2000CB6A03F08073B3F1807F00D1012000E036
:100A300000BF00BF704730B50468246824F48024E8
:100A400005682C60046863608468402C04D10468E5
:100A5000A2600468E16003E00468A1600468E260E9
:100A600030BD704708B507F0F7FA009000BF06F0F8
:100A700017FB0A21684607F021F8F8E772B600BFB5
:100A8000FEE7000010B504460B48844207D1012060
:100A90000A49087000224103094800F0D7FF0948BD
:100AA000844207D10120084908700022012104482E
:100AB00000F0CCFF10BD00000C000020140000204E
:100AC00000080240180000202000002010B5044655
:100AD000002020602046FFF7D5FF10BD30B503464B
:100AE00013B94FF6FF7030BD09E013F8014B82EAED
:100AF0000400C0B2054D35F8100080EA2222081E1D
:100B0000A1F10101F1D11046EDE70000C883000812
:100B100070B50B480168001D0568001D0068084499
:100B200000280CD0074C0822A11C02F0C0FE04F1E2
:100B300012012846BDE87040042202F0B8BE70BD24
:100B4000107AFF1FDC00002010B5024692F820301A
:100B5000012B01D0022B06D11068406908431468AC
:100B60006061002010BD506A40F480205062012076
:100B7000F8E7F0B504460D461E4694F8207020684C
:100B80008368A86800B900E000BF012F01D0022FE0
:100B90007DD103F0806030B903F0006018B903F034
:100BA000805000287ED0C3F301610120884030606E
:100BB000A86860B9B5F800C0E86840EA4C5C2068F5
:100BC00000F5C07000EB0110C0F800C00FE0D5E9DF
:100BD00001C040EACC00D5F80CC040EA0C00D4F8C3
:100BE00000C00CF5C07C0CEB011CCCF80000D5F863
:100BF00010C0206800F5C07000EB0110C0F804C000
:100C0000287D01280ED1206800F5C07000EB01108E
:100C1000406840F4807C206800F5C07000EB011053
:100C2000C0F804C0D079000692F806C040EA0C4033
:100C300092F805C040EA0C2092F804C040EA0C008B
:100C4000D4F800C00CF5C07C0CEB011CCCF80C00F7
:100C5000D078000692F802C040EA0C4092F801C039
:100C600040EA0C2092F800C040EA0C00D4F800C022
:100C70000CF5C07C0CEB011CCCF80800206800F5DA
:100C8000C07000EB0110006840F0010C01E00FE0C3
:100C900008E0206800F5C07000EB0110C0F800C04B
:100CA0000020F0BD606A40F4001060620120F8E7A7
:100CB000606A40F4802060620120F2E7F0B50446EB
:100CC0000A46216894F82050012D01D0022D7ED1D2
:100CD000424901F50071086840F0010008600868A9
:100CE00020F47C5008600868566A40EA06200860D4
:100CF000107D00F01F06012000FA06F3C869984332
:100D0000C861A1F50071D069C8B9D1F80C02984347
:100D1000C1F80C02908880B2968940EA064601F537
:100D20001070576940F83760108880B2168940EA21
:100D3000064601F51070576900EBC7004660D069A0
:100D4000012819D1D1F80C021843C1F80C0290887F
:100D500080B2168840EA064601F51070576940F8DF
:100D60003760908980B2168940EA064601F5107016
:100D7000576900EBC7004660906928B9D1F80402B2
:100D80009843C1F8040204E0D1F804021843C1F802
:100D90000402106928B9D1F814029843C1F814026A
:100DA00004E0D1F814021843C1F81402106A0128B3
:100DB00004D1D1F81C021843C1F81C02D1F800027A
:100DC00020F00100C1F800020020F0BDFFE7606ADA
:100DD00040F4802060620120F7E7000000640040DA
:100DE00070472DE9F05F04460025206846692068B9
:100DF000D0F80490206887682068D0F80CA020689C
:100E0000D0F810B02068D0F8188006F00100002853
:100E100055D007F00100C0B101202168886007F0BB
:100E2000020018B1204600F0B2FA0EE007F004000C
:100E300010B145F4006508E007F0080010B145F472
:100E4000805502E0204600F0A1FA07F48070C8B196
:100E50004FF480702168886007F4007018B1204654
:100E600000F097FA0EE007F4806010B145F40055E9
:100E700008E007F4006010B145F4804502E0204628
:100E800000F086FA07F48030C8B14FF48030216852
:100E9000886007F4003018B1204600F07CFA0EE0BC
:100EA00007F4802010B145F4004508E007F4002065
:100EB00010B145F4803502E0204600F06BFA06F0F0
:100EC000080038B10AF0100020B145F40075102078
:100ED0002168C86006F0040040B10AF0080028B19B
:100EE00008202168C860204600F01CFA06F00200C5
:100EF00038B12068C06800F0030010B1204600F04F
:100F000012FA06F0400038B10BF0100020B145F4A1
:100F1000806510202168086106F0200040B10BF0C8
:100F2000080028B1082021680861204600F0FCF97B
:100F300006F0100038B12068006900F0030010B11D
:100F4000204600F0F2F906F4003040B109F010003C
:100F500028B1102021684860204600F0E7F906F427
:100F6000803040B109F0080028B1082021684860AD
:100F7000204600F011FA06F4004088B309F004009E
:100F800078B306F4807020B108F0010008B145F094
:100F9000010506F4007020B108F0020008B145F028
:100FA000020506F4806020B108F0040008B145F0A5
:100FB000040506F40060A0B108F0700088B108F0E4
:100FC0007000402817D006DC10280BD020280CD049
:100FD000302819D10CE0502810D0602814D110E02E
:100FE0001DE019E045F008050FE045F010050CE0A4
:100FF00045F0200509E045F0400506E045F0800594
:1010000003E045F4807500E000BF00BF2068806900
:1010100020F07000216888610420216848602DB1AB
:10102000606A284360622046FFF7DAFEBDE8F09F61
:1010300070B504460CB9012070BD94F8200010B9B9
:10104000204600F0AFF82068006840F001002168F9
:10105000086000F001FD05460DE000F0FDFC401BBE
:101060000A2808D9606A40F400306062052084F8DC
:1010700020000120E0E72068406800F0010000281F
:10108000EBD02068006820F002002168086000F0C2
:10109000E3FC05460DE000F0DFFC401B0A2808D900
:1010A000606A40F400306062052084F8200001206E
:1010B000C2E72068406800F002000028EBD1207EE3
:1010C000012806D12068006840F08000216808608F
:1010D00005E02068006820F0800021680860607EDC
:1010E000012806D12068006840F0400021680860AF
:1010F00005E02068006820F0400021680860A07EBC
:10110000012806D12068006840F0200021680860AE
:1011100005E02068006820F0200021680860E07E7B
:10112000012806D12068006820F0100021680860BE
:1011300005E02068006840F0100021680860207F0A
:10114000012806D12068006840F008002168086086
:1011500005E02068006820F0080021680860607FD2
:10116000012806D12068006840F00400216808606A
:1011700005E02068006820F0040021680860D4E9D8
:101180000201084321690843616908436168491EF7
:1011900008432168C86100206062012084F82000B3
:1011A000002049E710B586B00446142101A8FFF7D6
:1011B000B3F856492068884249D155480068401C18
:1011C000534908600846006801280FD100BF00207D
:1011D00000905048006840F000704E490860084692
:1011E000006800F00070009000BF00BF00BF00204A
:1011F000009048481038006840F008004549103910
:1012000008600846006800F00800009000BF00BFBA
:1012100003200190022002900020039003200490FC
:101220000920059001A93C4800F016FB0022052189
:10123000132000F0D9FC132000F0C2FC002205218D
:10124000142000F0D1FC142000F0BAFC5CE033491B
:101250002068884258D100BF002000902D480068C7
:1012600040F080602B4908600846006800F080600C
:10127000009000BF00BF26480068401C2449086059
:101280000846006801280FD100BF002000902148C7
:10129000006840F000701F4908600846006800F0D0
:1012A0000070009000BF00BF00BF002000901948F0
:1012B0001038006840F002001649103908600846EE
:1012C000006800F00200009000BF00BF60200190A5
:1012D0000220029000200390032004900920059032
:1012E00001A90F4800F0B8FA002205213F2000F0C4
:1012F0007BFC3F2000F064FC00220521412000F02F
:1013000073FC412000F05CFC06B010BD006400409E
:101310002C00002040380240000C024000680040D1
:10132000000402407047704770477047704770B5BF
:10133000044694F82000012822D1022084F82000DD
:101340002068006820F001002168086000F084FB3C
:1013500005460DE000F080FB401B0A2808D9606AB2
:1013600040F400306062052084F82000012070BD48
:101370002068406800F001000028EBD16062F6E7C9
:10138000606A40F4002060620120F0E77047704717
:101390007047704770477047704770B50446A56D39
:1013A00000F05AFB064694F83500022808D0802049
:1013B000606500BF002084F8340000BF012070BDCC
:1013C0002068006820F016002168086020684069E5
:1013D00020F0800021684861206C08B9A06C28B119
:1013E0002068006820F00800216808602068006814
:1013F00020F001002168086010E000F02DFB801B48
:1014000005280BD920206065032084F8350000BF33
:10141000002084F8340000BF0320D0E72068006873
:1014200000F001000028E8D194F85C103F208840CB
:10143000A860012084F8350000BF002084F8340043
:1014400000BF00BFBBE7014691F83500022803D07A
:101450008020486501207047052081F83500086824
:10146000006820F001000A6810600020F3E7000027
:10147000F8B50446002000908C4800684FF41651DF
:10148000B0FBF1F7A56D2E6894F85C100820884039
:10149000304098B12068006800F0040070B1206806
:1014A000006820F004002168086094F85C100820AF
:1014B0008840A860606D40F00100606594F85C10A1
:1014C00001208840304068B12068406900F0800009
:1014D00040B194F85C1001208840A860606D40F035
:1014E0000200606594F85C1004208840304068B1C8
:1014F0002068006800F0020040B194F85C100420FD
:101500008840A860606D40F00400606594F85C104D
:1015100010208840304078B32068006800F0080050
:1015200050B394F85C1010208840A86020680068D0
:1015300000F4802080B12068006800F4002028B901
:10154000206CC8B12046216C884715E0A06C98B18A
:101550002046A16C88470FE02068006800F4807086
:1015600028B92068006820F0080021680860206C15
:1015700010B12046216C884794F85C1020208840E8
:101580003040002865D02068006800F01000002876
:101590005FD094F85C1020208840A86094F8350053
:1015A000052828D12068006820F01600216808600E
:1015B0002068406920F0800021684861206C08B9EB
:1015C000A06C28B12068006820F00800216808603D
:1015D00094F85C103F208840A860012084F8350012
:1015E00000BF002084F8340000BF206D10B12046F9
:1015F000216D8847F8BD2068006800F4802080B124
:101600002068006800F4002028B9606C10B1204602
:10161000616C88471DE0E06BD8B12046E16B8847DC
:1016200017E02068006800F4807068B920680068DE
:1016300020F0100021680860012084F8350000BF08
:10164000002084F8340000BFE06B10B12046E16B4D
:101650008847606D38B3606D00F00100F0B105207F
:1016600084F835002068006820F0010021680860D7
:1016700000BF0098401C0090B84200D905E02068E7
:10168000006800F001000028F3D100BF012084F8B9
:10169000350000BF002084F8340000BFE06C10B1BA
:1016A0002046E16C884700BFA4E700003C00002012
:1016B0002DE9F0410446002500F0CEF9074614B9A3
:1016C0000120BDE8F081606A00B100BF022084F80B
:1016D000350000BF002084F8340000BF2068006897
:1016E00020F00100216808600AE000F0B5F9C01B95
:1016F000052805D920206065032084F83500E0E73F
:101700002068006800F001000028EED1206805681C
:1017100021480540D4E901010843E16808432169F3
:10172000084361690843A1690843E1690843216AE4
:1017300008430543606A042803D1D4E90B01084338
:101740000543206805602068456925F00705606A43
:101750000543606A04280DD1A06A0543E06A48B1D8
:101760002046FFF713F928B140206065012084F876
:101770003500A6E7206845612046FFF7EDF80646EC
:1017800094F85C103F208840B06000206065012024
:1017900084F83500002094E73F8010F02DE9F047F1
:1017A00004460D4616461F464FF00008D4F85890E0
:1017B00000BF94F83400012802D10220BDE8F08770
:1017C000012084F8340000BF94F83500012825D1A9
:1017D000022084F83500002060653B4632462946E9
:1017E0002046FFF728F994F85C103F208840C9F89C
:1017F00008002068006840F0160021680860206C2E
:1018000028B12068006840F008002168086020685E
:10181000006840F001002168086006E000BF002079
:1018200084F8340000BF4FF002084046C6E70000CD
:1018300070B5044600F010F906462546681C10B144
:1018400004480078054400BF00F006F9801BA84258
:10185000FAD370BD38000020F8B502460B460025CB
:10186000002400200021D6E0012606FA01F51E68BA
:1018700006EA0504AC4274D11E7906F00306012E77
:1018800004D01E7906F00306022E13D190684F0093
:101890000326BE40B0434F00DE68BE403043906038
:1018A000506801268E40B0431E79C6F300168E4064
:1018B000304350601E7906F00306032E09D0D0682D
:1018C0004F000326BE40B0434F009E68BE403043E9
:1018D000D0601E7906F00306022E13D1CF0802F164
:1018E000200656F827004E07F70E0F26BE40B043DD
:1018F0004F07FF0E1E69BE403043CF0802F120069D
:1019000046F8270010684F000326BE40B0431E79FA
:1019100006F003064F00BE40304310605E6806F4D8
:101920004036002E76D000BF002600963C4E36682A
:1019300046F480463A4F3E603E46366806F480469E
:10194000009600BF00BF374E8F0856F827008E075D
:10195000370F0F26BE40B043334EB24202D10026AD
:1019600024E057E0314EB24201D101261EE0304E54
:10197000B24201D1022619E02E4EB24201D1032615
:1019800014E02D4EB24201D104260FE02B4EB2429C
:1019900001D105260AE02A4EB24201D1062605E011
:1019A000284EB24201D1072600E008268F073F0FDC
:1019B000BE4030431B4E8F0846F82700224E306849
:1019C000A0435E6806F4801606B120431E4E3060C8
:1019D000361D3068A0435E6806F4001606B1204349
:1019E000194E361D3060184E361F3068A0435E68B1
:1019F00006F4003606B12043134E361F3060361F02
:101A00003068A0435E6806F4803606B120430E4E6F
:101A1000083E3060491C1029FFF426AFF8BD0000D5
:101A200044380240083801400000024000040240EF
:101A300000080240000C0240001002400014024066
:101A400000180240001C0240083C01400AB18161BC
:101A500001E00B0483617047014800687047000093
:101A60003000002003480068034909780844014910
:101A700008607047300000203800002010B50D4885
:101A8000006840F400700B4908600846006840F4A4
:101A9000806008600846006840F480700860032099
:101AA00000F0E0F80F2000F007F800F05FF80020E9
:101AB00010BD0000003C02402DE9F04188B0044612
:101AC0000027B84600BF002001902448006840F07D
:101AD0000100224908600846006800F001000190FA
:101AE00000BF00BF02A903A801F028F8069F1FB994
:101AF00001F04CF8054602E001F048F845001848AE
:101B0000B5FBF0F0A0F101084FF0804015490860E6
:101B100040F2E7311348C160C0F804800021016140
:101B20008160816101F0FAFA064696B90D4801F02C
:101B300029FB06466EB91C2000F042F8102C07D293
:101B4000002221461C2000F04FF80748046000E006
:101B50000126304608B0BDE8F08100004038024060
:101B600040420F00880500203400002008B500BF67
:101B7000002000901148006840F480400F49086040
:101B80000846006800F48040009000BF00BF00BF1E
:101B900000200090081F006840F08050091F086076
:101BA0000846006800F08050009000BF00BF00228F
:101BB0000F21901E00F018F808BD000044380240C4
:101BC0000146084600280DDB00BF00BF00F01F03E0
:101BD00001229A4043099B0003F1E023C3F800214E
:101BE00000BF00BF00BF70472DE9F05F80460D4683
:101BF0001646002705F07AFA074639462A46334644
:101C000001F00700C0F1070ABAF1040F02D94FF042
:101C1000040A01E0C0F1070AD14600F1040ABAF152
:101C2000070F02D24FF0000A01E0A0F1030AD446E8
:101C30004FF0010A0AFA09FAAAF1010A0AEA020AAD
:101C40000AFA0CFA4FF0010B0BFA0CFBABF1010B8B
:101C50000BEA030B4AEA0B042146404605F04EFA14
:101C6000BDE8F09F00BF00F00702064B19684FF671
:101C7000FF031940044B0B4343EA0221014B196057
:101C800000BF70470CED00E00000FA057047024607
:101C90001068416200207047F0B503461546186889
:101CA000446A21B944EA05401E68B06219E0186828
:101CB000806A04EB1044002208E0186800F5827086
:101CC00050F8220004EB1044501CC2B2481E90424F
:101CD000F3D844EA0547186800F582704E1E40F8B4
:101CE00026700020F0BDD0F8E00403F0F1BC01EB59
:101CF000C10200EB8202D0F8E004126A03F012BCC9
:101D000001EBC10200EB8202D0F8E004D2F86022BD
:101D100003F076BCD0F8E00403F0DCBC2DE9F04120
:101D200004460D4605F08000802808D105F00F001C
:101D300000EBC00104F1140000EB810607E005F0A0
:101D40000F0000EBC00104F5157000EB8106314671
:101D5000206804F0E5FD07463846BDE8F08170B51F
:101D600004460E4606F0800080280AD106F00F00D7
:101D700000EBC00104F1140000EB81050120687044
:101D800009E006F00F0000EBC00104F5157000EB50
:101D900081050020687006F00F00287000BF94F8DD
:101DA0009404012801D1022070BD012084F894041C
:101DB00000BF2946206804F047F900BF002084F8DE
:101DC000940400BF00BFEFE770B504460E4606F06E
:101DD0000F002179884201D9012070BD06F08000F2
:101DE00080280AD106F00F0000EBC00104F11400B6
:101DF00000EB81050120687009E006F00F0000EBA0
:101E0000C00104F5157000EB81050020687000200A
:101E1000A87006F00F00287000BF94F89404012801
:101E200001D10220D9E7012084F8940400BF29469B
:101E3000206804F007FB00BF002084F8940400BF72
:101E400000BFCAE7024601F00F0000EBC00302F535
:101E5000157000EB8300406970472DE9F047054697
:101E60000E4690461F464FF0000906F0800080287D
:101E70000AD106F00F0000EBC00105F1140000EBE1
:101E800081040120607009E006F00F0000EBC00142
:101E900005F5157000EB81040020607006F00F005E
:101EA0002070C4F808802771607808B120786083BA
:101EB000022F01D10020607100BF95F89404012821
:101EC00002D10220BDE8F087012085F8940400BF0C
:101ED0002146286803F0CCFF00BF002085F8940459
:101EE00000BF4846EEE72DE9F04105460E4617468D
:101EF000984606F00F0000EBC00105F5157000EBE9
:101F00008104E760C4F8108000206061607006F012
:101F10000F002070A879012800D1E761AA79214635
:101F2000286804F023FB0020BDE8F08170B504466A
:101F30000D4605F00F002179884201D9012070BDBE
:101F400005F0800080280AD105F00F0000EBC001E9
:101F500004F1140000EB81060120707007E005EB2E
:101F6000C50104F5157000EB81060020707001209A
:101F7000B07005F00F00307000BF94F89404012891
:101F800001D10220DBE7012084F8940400BF314630
:101F9000206804F09EFA05F00F0028B9A17904F238
:101FA0009C42206804F016FA00BF002084F89404D4
:101FB00000BF00BFC3E72DE9F04105460E461746B6
:101FC000984606F00F0000EBC00105F1140000EB8D
:101FD0008104E760C4F81080002060610120607017
:101FE00006F00F002070A879012800D1E761AA79D6
:101FF0002146286804F0BAFA0020BDE8F0812DE9F6
:10200000FE4F0446D4F800B05E46206804F06AFD36
:10201000002874D1206804F0A4FD08B9BDE8FE8F43
:1020200040F608008059C0F30D20C4F8D40420689D
:1020300004F097FD00F00200022805D120684069F5
:1020400000F0020021684861206804F08AFD00F079
:102050001000102845D12068806920F01000216808
:102060008861DBF8209009F00F0000EBC00104F557
:10207000157000EB810AC9F3434002281AD147F6D4
:10208000F07009EA000030B3C9F30A125846DAF8D2
:102090000C1004F06BFDC9F30A11DAF80C000844C7
:1020A000CAF80C00C9F30A11DAF814000844CAF897
:1020B000140010E0C9F3434006280CD1082204F2B2
:1020C0009C41584604F052FDC9F30A11DAF8140095
:1020D0000844CAF814002068806940F010002168A4
:1020E0008861206804F03DFD00F40020B0F5002F69
:1020F0007BD10025206804F004FD029072E0E1E24B
:10210000029800F00100002868D0E9B2206804F0CD
:102110001BFD804608F0010048B1012106F5306042
:1021200000EB451081602946204601F0DBFE08F0F7
:102130000800082809D1082106F5306000EB451099
:1021400081602946204601F09BFE08F0100010280F
:1021500005D1102106F5306000EB4510816008F0D4
:102160000200022824D1DBF8140000F0800080284F
:1021700007D140F60400805940F4806140F6040025
:10218000815105EBC50104F5157000EB810A9AF841
:102190000300012806D100208AF80300E9B2204696
:1021A00000F096FA022106F5306000EB45108160E0
:1021B00008F02000202805D1202106F5306000EB32
:1021C0004510816008F40050B0F5005F06D14FF46F
:1021D000005106F5306000EB451081606D1C0298DF
:1021E00040080290029800288AD1206804F0B9FCC7
:1021F00000F48020B0F5802F7DD1206804F077FCBA
:10220000029000259AE0029800F00100002873D0A7
:10221000E9B2206804F07FFC804608F00100F0B3CA
:1022200005F00F0101208840019040F634008159EB
:10223000019821EA000040F634018851012106F599
:10224000106000EB45108160A079012824D105EBD6
:10225000C50104F1140000EB810005EBC502C16863
:1022600004F1140000EB82008068014405EBC50214
:1022700004F1140000EB8200C1606DB905EBC501EB
:1022800004F1140000EB8100006928B904F29C42BB
:102290000121206804F09EF8E9B2204600E001E048
:1022A000FFF725FD08F00800082805D1082106F5EC
:1022B000106000EB4510816008F01000102805D177
:1022C000102106F5106000EB4510816008F0400019
:1022D000402805D1402106F5106000EB45108160D3
:1022E00008F0020002281DD12946584604F0BDFB23
:1022F00005EBC50101E025E01CE004F1140000EB52
:10230000810A9AF80300012806D100208AF8030008
:10231000E9B2204600F0D8F9022106F5106000EB82
:102320004510816008F08000802803D129462046AE
:1023300001F07AFE6D1C0298400802900298002875
:102340007FF461AF206804F00CFC00F00040B0F1B5
:10235000004F1CD140F60400805920F0010140F6E6
:102360000400815194F8CC04012807D1002084F89E
:10237000CC0400212046FFF789FC02E0204600F053
:10238000B4FA2068406900F0004021684861206884
:1023900004F0E7FB00F40060B0F5006F0ED140F6EA
:1023A0000800805900F0010010B1204600F0ECFA5E
:1023B0002068406900F4006021684861206804F0EA
:1023C000D0FB00F48050B0F5805F7ED140F6040071
:1023D000805920F0010140F604008151102120684D
:1023E00004F043FB002732E04FF67F3106F5106022
:1023F00000EB4710816006F5106000EB47100068A5
:1024000020F4001106F5106000EB471001604FF654
:102410007F3106F5306000EB4710816006F53060D3
:1024200000EB4710006820F4001106F5306000EB67
:102430004710016006F5306000EB4710006840F07F
:10244000006106F5306000EB471001607F1C2079C9
:10245000B842C9D840F61C00805940F0011140F63E
:102460001C008151E07B70B1D6F8840840F00B016C
:10247000C6F8841840F64400805940F00B0140F63D
:10248000440081510FE040F61400805942F22B01C4
:10249000084340F614018851081F805940F00B0191
:1024A0004FF401608151D6F8000820F4FE60C6F8B0
:1024B0000008A17904F29C42206803F08BFF206899
:1024C000406900F48050216800E000E04861206825
:1024D00004F047FB00F40050B0F5005F17D120680E
:1024E00003F02EFD206804F0EAFAE07100F048FBEA
:1024F0000090E2792068009904F0BAFB204600F0D1
:10250000DDF92068406900F40050216848612068C6
:1025100004F027FB00F00800082808D1204600F04E
:10252000E8F92068406900F00800216848612068E7
:1025300004F017FB00F08000802818D1DBF81800A9
:1025400020F08000CBF8180001250DE005EBC50157
:1025500004F5157000EB8100C078012803D1E9B2C1
:102560002046FFF7DBFB6D1C2079A842EED82068DF
:1025700004F0F7FA00F48010B0F5801F2DD101258A
:1025800022E006F5106000EB4510D0F8009005EB56
:10259000C50104F1140000EB81000079012812D17B
:1025A00009F00040B0F1004F0DD1012105EBC5024B
:1025B00004F1140000EB8200C170E8B240F0800129
:1025C0002046FFF7ABFB6D1C2079A842D9D82068C4
:1025D000406900F4801021684861206804F0C1FA65
:1025E00000F40010B0F5001F44D1012538E006F5D5
:1025F000306000EB4510D0F8009005EBC50104F504
:10260000157000EB81000079012828D109F0004005
:10261000B0F1004F23D109F4803094F8D41401F0C4
:10262000010188421BD1012105EBC50204F515709B
:1026300000EB8200C170DBF8180040F08000CBF89E
:102640001800DBF8140000F0800040B940F60400E8
:10265000805940F4007140F60400815103E06D1C84
:102660002079A842C3D800BF2068406900F4001058
:1026700021684861206804F074FA00F08040B0F1ED
:10268000804F08D12046FFF72EFB2068406900F0FC
:10269000804021684861206804F063FA00F004007B
:1026A00004280FD12068D0F8049009F00400042811
:1026B00002D12046FFF72EFB2068406840EA09005F
:1026C0002168486000BFA9E4D0F8E00403F056B8E0
:1026D000D0F8E00403F067B8F8B504460CB901205F
:1026E000F8BD266894F8950428B9002084F894046D
:1026F000204600F0A1F8032084F89504B6F1A04F1D
:1027000001D10021A171206803F05CFE207C8DF8CE
:10271000000094E80F0003F027FC20B1022084F8A9
:1027200095040120DCE70021206804F04FFA20B175
:10273000022084F895040120D2E7002531E0012130
:1027400005EBC50204F1140000EB8200417005EBBB
:10275000C50104F1140000F8215005EBC50100EBA0
:1027600081004583002105EBC50204F1140000EB54
:102770008200017105EBC50204F1140000EB820038
:10278000816005EBC50204F1140000EB8200C1601A
:1027900005EBC50204F1140000EB82000161681C26
:1027A000C5B22079A842CADC00252AE0002105EB49
:1027B000C50204F5157000EB8200417005EBC50100
:1027C00004F5157000F82150002105EBC50200EB5F
:1027D0008200017105EBC50204F5157000EB820063
:1027E000816005EBC50204F5157000EB8200C16045
:1027F00005EBC50204F5157000EB82000161681C51
:10280000C5B22079A842D1DC207C8DF8000094E884
:102810000F0003F0E3FC20B1022084F895040120AE
:102820005EE700206074012084F89504206803F0BE
:10283000C3FC002054E7000000B587B000210291DE
:1028400003910491059106910068B0F1A04F2BD13E
:102850001648016841F001010160006800F00100C4
:1028600001904FF4C0500290022003900320059085
:102870000A20069002A90E48FEF7EEFF0D480168F7
:1028800041F0800101600C48016841F48041016021
:10289000006800F480400190002205214320FFF7EA
:1028A000A3F94320FFF78CF907B000BD3038024090
:1028B00000000240343802404438024070B50446FB
:1028C0000125E07900280ED0022801D0FEF7D6F8C5
:1028D0002946D4F8E00402F0D7FFD4F8E004BDE8BC
:1028E000704002F08ABF0025F2E7D0F8E00402F061
:1028F000B4BFD0F8E00402F0BABF70B504460D468C
:1029000000BF94F89404012801D1022070BD012079
:1029100084F8940400BF65742946206804F08AF99D
:1029200000BF002084F8940400BF00BFEEE7D0F899
:10293000E02400F29C41104602F0B2BF70B504469C
:10294000256800BF94F89404012801D1022070BDCD
:10295000012084F8940400BFE86800F0400030B122
:10296000607B012803D1A86B40F48030A863206805
:1029700004F04CF8206803F00DFC00BF002084F840
:10298000940400BF00BFE2E710B50446D4F8E004A9
:1029900002F0CAFF2068D0F8001E41F00101C0F823
:1029A000001EE07A002804D00248016841F00601C8
:1029B000016010BD10ED00E070B504460D460CB985
:1029C000012070BD5848006800F00700A84209D2F5
:1029D00055490D700846006800F00700A84201D074
:1029E0000120EEE7207800F0020002281DD12078B7
:1029F00000F00400042805D14C48006840F4E05081
:102A00004A490860207800F00800082805D14748A6
:102A1000006840F46040454908604448006820F080
:102A2000F000A168084341490860207800F00100E7
:102A3000A8B36068012807D13C4808380068C0F393
:102A40004040B8B90120BCE76068022802D0606845
:102A5000032807D1354808380068C0F3406048B9FA
:102A60000120AEE7314808380068C0F3400008B9DB
:102A70000120A6E72D48006820F0030061680843A4
:102A80002A490860FEF7E8FF064609E0FEF7E4FF82
:102A9000801B41F28831884202D9032091E707E088
:102AA0002248006800F00C006168B0EB810FEDD1A6
:102AB0001D48006800F00700A84209D91A490D70A6
:102AC0000846006800F00700A84201D0012078E71E
:102AD000207800F00400042807D11448006820F48E
:102AE000E050E168084311490860207800F00800D0
:102AF000082808D10D48006820F46040216940EAA8
:102B0000C1000A49086000F061F808490968C1F38A
:102B10000311074A515CC84006490860064800682E
:102B2000FEF7CAFF00204CE7003C02400838024094
:102B3000EC8500083C000020340000200F220260D9
:102B40000D4A126802F0030242600B4A126802F05A
:102B5000F0028260084A126802F4E052C260064A3B
:102B6000126802F46042D2080261044A126802F05C
:102B700007020A607047000008380240003C02402B
:102B800001480068704700003C00002000B5FFF7D6
:102B9000F7FF04490968C1F38221034A515CC84028
:102BA00000BD000008380240FC85000800B5FFF7B2
:102BB000E7FF04490968C1F34231034A515CC84048
:102BC00000BD000008380240FC8500082DE9F047F0
:102BD000002400250026A1462548006800F00C00CE
:102BE00020B1042805D008283AD105E0DFF8849008
:102BF00039E0DFF8849036E01D48001F006800F0DF
:102C00003F041B48001F006800F4800078B11A4898
:102C10001749091F0968C1F38811A0FB017001461B
:102C2000224600233846FDF72DFB05460EE01148ED
:102C30000F49091F0968C1F38811A0FB0170014603
:102C4000224600233846FDF71DFB05460848001FB5
:102C50000068C0F30140401C4600B5FBF6F902E0F5
:102C6000DFF8109000BF00BF4846BDE8F0870000C5
:102C7000083802400024F40040787D01F8B504468D
:102C80000CB90120F8BD207800F00100002874D0B4
:102C9000F948006800F00C0004280DD0F6480068E0
:102CA00000F00C00082813D1F348001F006800F45E
:102CB0008000B0F5800F0BD1EF4808380068C0F3F2
:102CC0004040002859D06068002856D10120D9E73B
:102CD00000BF6068B0F5803F08D1E7480838006859
:102CE00040F48030E449083908601EE06068B0F5BF
:102CF000A02F0DD1E0480838006840F48020DE495C
:102D0000083908600846006840F4803008600CE02C
:102D1000D9480838006820F48030D749083908605D
:102D20000846006820F48020086000BF606890B109
:102D3000FEF792FE054606E0FEF78EFE401B642875
:102D400001D903209EE7CC4808380068C0F3404012
:102D50000028F1D011E0FEF77FFE054606E0FEF701
:102D60007BFE401B642801D903208BE7C24808384A
:102D70000068C0F340400028F1D1207800F0020044
:102D800002285FD1BC48006800F00C0058B1BA4876
:102D9000006800F00C0008281CD1B748001F00682C
:102DA00000F48000B0B9B44808380068C0F34000AF
:102DB00020B1E068012801D0012063E7AE4808385F
:102DC000006820F0F800216940EAC100AA490839EA
:102DD000086037E0E06800B30120A8490860FEF70A
:102DE0003BFE054606E0FEF737FE401B022801D9F0
:102DF000032047E7A04808380068C0F340000028D7
:102E0000F1D09D480838006820F0F800216940EAB8
:102E1000C10099490839086014E00020974908600A
:102E2000FEF71AFE054606E0FEF716FE401B0228D6
:102E300001D9032026E7904808380068C0F3400015
:102E40000028F1D1207800F0080008282CD1606912
:102E5000A8B101208A490860FEF7FEFD054606E09C
:102E6000FEF7FAFD401B022801D903200AE7824839
:102E70006C300068C0F340000028F1D014E000205E
:102E80007F490860FEF7E8FD054606E0FEF7E4FD31
:102E9000401B022801D90320F4E677486C30006813
:102EA000C0F340000028F1D1207800F0040004288D
:102EB00070D1002770483830006800F0805090B919
:102EC00000BF002000906C483830006840F080500F
:102ED0006949383108600846006800F08050009069
:102EE00000BF00BF01276748006800F48070B0B9D8
:102EF0006448006840F4807062490860FEF7ACFDE9
:102F0000054606E0FEF7A8FD401B022801D9032074
:102F1000B8E65C48006800F480700028F2D000BF7A
:102F2000A068012808D154486830006840F00100CA
:102F30005149683108601DE0A06805280DD14E4850
:102F40006830006840F004004B496831086008466A
:102F5000006840F0010008600CE0474868300068F5
:102F600020F001004449683108600846006820F0FC
:102F70000400086000BFA068A8B1FEF76DFD05461B
:102F800009E0FEF769FD401B41F28831884202D911
:102F9000032077E626E0384868300068C0F3400038
:102FA0000028EED013E0FEF757FD054608E0FEF7D7
:102FB00053FD401B41F28831884201D9032061E66C
:102FC0002D4868300068C0F340000028EFD1012F81
:102FD00007D129483830006820F080502649383120
:102FE000086000BFA069002845D02348006800F0B1
:102FF0000C0008285DD0A069022845D100201F4997
:103000000866FEF729FD054606E0FEF725FD401B94
:10301000022801D9032035E6174808380068C0F3B4
:1030200040600028F1D1D4E907010843616A40EA11
:1030300081110122A06AC2EB500041EA00412C201C
:10304000005D41EA00600C49091F086001200B493E
:103050000866FEF701FD054606E0FEF7FDFC401B95
:10306000022801D903200DE6034808380068C0F3A0
:1030700040600028F1D049E0083802400000474293
:10308000800E474200700040002021490866FEF78C
:10309000E3FC054606E0FEF7DFFC401B022801D9F1
:1030A0000320EFE51B480068C0F340600028F2D120
:1030B0002CE0A069012800D1E4E51648001D06684F
:1030C000A069012820D006F48001E06981421BD16B
:1030D00006F03F01206A814216D147F6C0703040A9
:1030E000616AB0EB811F0FD106F440310122A06A62
:1030F000C2EB5000B1EB004F06D106F070612C20FE
:10310000005DB1EB006F01D00120BBE50020B9E507
:1031100000004742003802407047704710B504462F
:103120000CB9012010BD94F83D0028B9002084F8A6
:103130003C00204600F025F8022084F83D00211DC7
:10314000206801F09BF8012084F8460000BF84F855
:103150003E0001213F2001554020015541200155ED
:1031600000BF00BF012084F84200432001554420E5
:1031700001554520015500BF012084F83D00002085
:10318000D0E77047014691F83D00012801D00120A9
:103190007047022081F83D000868C06840F00100D7
:1031A0000B68D8601A4B086898421BD00868B0F1C9
:1031B000804F17D0174B0868984213D0164B0868F9
:1031C00098420FD0154B086898420BD0144B0868F2
:1031D000984207D0134B0868984203D0124B0868F6
:1031E00098420CD10868806800F00702062A0CD0CB
:1031F0000868006840F001000B68186005E0086886
:10320000006840F001000B6818600020C0E7000073
:10321000000001400004004000080040000C004095
:10322000000401400040014000180040704770B5A4
:1032300004462068C5682068066906F00200022876
:1032400019D105F00200022815D1401F216808613C
:10325000012020772068806900F0030018B1204623
:10326000FFF7E4FF05E0204600F097F8204600F065
:1032700095F80020207706F00400042819D105F005
:103280000400042815D1C04321680861022020777A
:103290002068806900F4407018B12046FFF7C6FF2F
:1032A00005E0204600F079F8204600F077F800208D
:1032B000207706F00800082819D105F00800082832
:1032C00015D1C04321680861042020772068C069B7
:1032D00000F0030018B12046FFF7A8FF05E02046E4
:1032E00000F05BF8204600F059F80020207706F047
:1032F0001000102819D105F01000102815D1C04376
:1033000021680861082020772068C06900F44070B7
:1033100018B12046FFF78AFF05E0204600F03DF88F
:10332000204600F03BF80020207706F0010048B16D
:1033300005F0010030B16FF00100216808612046FE
:1033400000F02DF806F08000802809D105F08000FB
:10335000802805D1C043216808612046FFF7DCFEC4
:1033600006F04000402809D105F04000402805D172
:10337000C04321680861204600F01AF806F02000DA
:10338000202809D105F02000202805D1C04321685C
:1033900008612046FFF7C1FE70BD7047704710B549
:1033A00004462068B0F1804F01D1FEF75BFB10BDF1
:1033B0007047704770B50446002520684069C0F327
:1033C000C01594F84100212817D1B5B100BF00BF46
:1033D0002168143151E8001F21F080002168143168
:1033E00041E80002002AF3D100BFA06B10B1A06B2E
:1033F000FDF7D3FF204601F02BF920684069C0F3A8
:10340000801594F84200222817D1B5B100BF00BF43
:103410002168143151E8001F21F040002168143167
:1034200041E80002002AF3D100BFE06B10B1E06B6D
:10343000FDF7B3FF204601F0C5F8002070BD7047CE
:103440002DE9F84F0446206805682068C6682068A2
:1034500047694FF00009CA4605F00F09B9F1000F9E
:103460000AD105F0200038B106F0200020B1204636
:1034700001F001F9BDE8F88FB9F1000F7CD007F039
:10348000010018B906F49070002875D005F001000D
:1034900030B106F4807018B1606C40F001006064D7
:1034A00005F0040030B107F0010018B1606C40F085
:1034B0000200606405F0020030B107F0010018B1AD
:1034C000606C40F00400606405F0080048B106F04C
:1034D000200010B907F0010018B1606C40F008003E
:1034E0006064606C002846D005F0200028B106F02A
:1034F000200010B1204601F0BEF820684069C0F3FA
:10350000801A606C00F0080010B9BAF1000F2DD0DD
:10351000204601F057F82068406900F0400040283C
:1035200020D100BF00BF2168143151E8001F21F0F5
:1035300040002168143141E80002002AF3D100BFA5
:10354000E06B50B17748E16B0865E06BFDF77BFFFE
:1035500088B1E06B016D88470DE02046FFF76FFFF3
:1035600009E009E02046FFF76AFF04E02046FFF784
:1035700066FF002060647DE7206B012878D105F0AC
:103580001000002874D006F010000028FAD000BF08
:10359000002000902068006800902068406800903B
:1035A00000BF00BF2068406900F04000402860D1A3
:1035B000E06B006840681FFA80F8B8F1000F56D041
:1035C000A08D404553DDA4F82E80E06BC069B0F5B6
:1035D000807F43D000BF00BF21680C3151E8001F3D
:1035E00021F4807021680C3141E80002002AF3D1F7
:1035F00000BF00BF00BF2168143151E8001F21F057
:1036000001002168143141E80002002AF3D100BF13
:1036100000BF00BF2168143151E8001F21F04000B5
:103620002168143141E80002002AF3D100BF2020B4
:1036300084F842000020206300BF00BF21680C31E5
:1036400051E8001F21F0100021680C3141E8000210
:10365000002AF3D100BFE06BFDF79FFE02206063FC
:10366000A08DE28D801A81B22046FFF7A2FE01E70D
:1036700042E0A08DE18D401A1FFA80F8E08DD0B3B2
:10368000B8F1000F37D000BF00BF21680C3151E8FE
:10369000001F21F4907021680C3141E80002002ADB
:1036A000F3D100BF00BF00BF2168143151E8001FF3
:1036B00021F001002168143141E80002002AF3D111
:1036C00000BF202084F842000020206300BF00BF1C
:1036D00021680C3151E8001F21F0100021680C31E5
:1036E00041E80002002AF3D100BF02206063414696
:1036F0002046FFF75EFEBDE605F0800030B106F023
:10370000800018B1204601F0AFF9B3E605F04000A3
:1037100030B106F0400018B1204600F089FFA9E65C
:1037200000BFA7E68944000810B504460CB9012083
:1037300010BDA06900B100E000BF94F8410028B9B5
:10374000002084F84000204600F02AF8242084F865
:1037500041002068C06820F400502168C8602046FD
:1037600001F008F82068006920F4904021680861A1
:103770002068406920F02A00216848612068C068FC
:1037800040F400502168C86000206064202084F864
:10379000410084F842000020606300BFC8E70000D9
:1037A00010B586B00446142101A8FCF7B5FD2D49DB
:1037B0002068884254D100BF002000902A48006849
:1037C00040F40020284908600846006800F4002002
:1037D000009000BF00BF00BF0020009022481038BA
:1037E000006840F00400204910390860084600686D
:1037F00000F00400009000BF00BF4FF44060019053
:1038000002200290002003900320049008200590DD
:1038100001A91648FEF720F815481649086040052A
:103820004860002113488160C1604FF480610161EC
:10383000002141618161C16101624162FDF738FF90
:1038400008B1FDF71BF900BF0A48E063846300BFBD
:10385000002205213420FEF7C7F93420FEF7B0F925
:1038600006B010BD004C0040403802400008024045
:1038700040600240EC04002070B504460D46164638
:1038800094F8420020280BD105B10EB9012070BD7B
:103890000020206332462946204601F081F8F6E7F1
:1038A0000220F4E770477047704700BFFEE7F0B4AE
:1038B0000023002A18D90A24302537269C46B4EB69
:1038C000107F04D905EB107701F8137003E006EBC5
:1038D000107701F81370000101EB430787F801C06E
:1038E0005B1CDBB29342EAD3F0BC704710B50D48C5
:1038F0000D4908600620486000210B488160C160C6
:103900004FF40031016109014161002101764176E6
:103910008176C17601774177FDF78AFB08B1FDF723
:10392000ADF810BD006400405404002010B50D48EF
:103930000D4908600620486000210B488160C16085
:103940004FF40031016109014161002101764176A6
:103950008176C17601774177FDF76AFB08B1FDF703
:103960008DF810BD006800407C04002008B500BF41
:10397000002000900A48006840F4001008490860E0
:103980000846006800F40010009000BF00BF00224D
:1039900005210D20FEF728F90D20FEF711F908BDCD
:1039A0003038024000B587B01C2206496846FCF753
:1039B0009AFC0021684603F051FC0349086007B0F7
:1039C00000BD0000C88500082800002000B587B0B1
:1039D000142102A8FCF7A0FC00BF00200190304891
:1039E000006840F004002E4908600846006800F0B6
:1039F0000400019000BF00BF00BF002001900846F6
:103A0000006840F0800008600846006800F0800010
:103A1000019000BF00BF00BF002001900846006871
:103A200040F0010008600846006800F001000190C5
:103A300000BF00BF00BF002001900846006840F0B2
:103A4000080008600846006800F00800019000BF08
:103A500000BF00BF002001900846006840F002004F
:103A600008600846006800F00200019000BF00BF37
:103A7000002249140B48FDF7E9FF012206210948FD
:103A8000FDF7E4FF42F207000290012003900020BE
:103A90000490059002A90348FDF7DEFE07B000BDC3
:103AA000303802400008024010B50B480B4908604E
:103AB0004FF4E1304860002108488160C160016135
:103AC0000C21416100218161C161FFF72DFE08B128
:103AD000FCF7D4FF10BD0000004C0040A4040020FF
:103AE00010B500220F49104801F0F6FC08B1FCF7B0
:103AF000C5FF0E490C4801F046FF08B1FCF7BEFFB8
:103B00000B49094801F0D8F908B1FCF7B7FF06489E
:103B100002F00EF8002803D0BDE81040FCF7AEBF5D
:103B200010BD0000A8000020C04200206401002059
:103B3000F800002000BFFEE72DED0C8B82B004F0F2
:103B40008BFA019000BF9B48407A00F0010010B151
:103B50000220994908709748407AC0F3800010B15C
:103B60000120954908709348407AC0F3400040B165
:103B70000020914908709149088091490880914935
:103B800008808D48007801287ED18F49B1F9040062
:103B9000FCF7E6FC41EC1B0B9FED8C0B53EC102B60
:103BA000FCF76CFC41EC190B8749B1F90000FCF7FC
:103BB000D7FC41EC1D0B9FED850B53EC102BFCF754
:103BC0005DFC41EC1B0B8049B1F90200FCF7C8FC1D
:103BD00041EC1D0B9FED7F0B53EC102BFCF74EFCC3
:103BE00041EC1C0B53EC1B2BFCF7A1FB41EC1A0B1B
:103BF00053EC192BFCF79BFB41EC180BFCF7C1FCB9
:103C000000B26E4908807049B1F90400FCF7A8FCC5
:103C100041EC180B9FED6D0B53EC102BFCF72EFCB9
:103C200041EC1A0B6849B1F90000FCF799FC41EC32
:103C30001D0B9FED660B53EC102BFCF71FFC41ECAA
:103C4000180B6149B1F902104842FCF789FC41ECBC
:103C50001D0B9FED600B53EC102BFCF70FFC41ECA0
:103C6000190B53EC182BFCF762FB41EC1C0B53ECCB
:103C70001A2BFCF75CFB41EC1B0BFCF782FC00B23F
:103C80004F490880504900E020E0B1F90400FCF7FA
:103C900067FC41EC1B0B9FED4D0B53EC102BFCF71D
:103CA000EDFB41EC190B4849B1F900104842FCF713
:103CB00057FC41EC1A0B53EC192BFCF738FB41EC89
:103CC000180BFCF75EFC00B23E4908803B48B0F997
:103CD00000004249884203DA4BF698503749088081
:103CE0003648B0F9000044F26821884202DD0846F7
:103CF000324908803248B0F900003849884203DA76
:103D00004BF698502E4908802D48B0F9000044F237
:103D10006821884202DD0846294908802948B0F90F
:103D200000002E49884203DA4BF698502549088056
:103D30002448B0F9000044F26821884202DD0846B8
:103D4000204908802648B0F908104FF4FA721B4841
:103D5000B0F9000000F0C3F900B221490881214800
:103D6000B0F908104FF4FA721548B0F9000000F0ED
:103D7000B6F900B21B4908811B48B0F908104FF48E
:103D8000FA721048B0F9000000F0A9F900B2164923
:103D9000088113491548FCF72BFD12491348FCF71D
:103DA00027FD11491148FCF723FD0A2101A803F062
:103DB00085FEC8E6610500200800002022000020E2
:103DC00024000020260000207805002000000000CC
:103DD0000000E03FBC96900F7AB6EB3F98BDFFFF26
:103DE000B8010020D0010020E80100207C04002060
:103DF00008B504F031F9009000BF1548007878B993
:103E000014480078012806D100201349088013497E
:103E1000088013490880012251031248FDF716FE5D
:103E20001148007878B90B480078022806D10020A4
:103E3000094908800949088009490880012211467A
:103E40000848FDF703FE0A21684603F037FED4E771
:103E50001400002008000020220000202400002080
:103E600026000020000802402000002000BFFEE7DE
:103E700010B50248FEF7C3F810BD0000BC59002081
:103E80002DE9F04704460D4626683746D6F84080AF
:103E900007F5306000EB4510D0F8089010488045D9
:103EA0000BD909F40040B0F5004F06D14FF40041A2
:103EB00007F5306000EB451081602046FEF737FDC6
:103EC0000748804508D9A079012805D104F29C4211
:103ED0000121206802F07EFA0020BDE8F087000092
:103EE0000A30544F2DE9F04705460C46D5F80090AE
:103EF0004E46D9F840A006F5306000EB4410D0F8EB
:103F00000880A879012855D108F0080008280FD1A9
:103F1000434882450BD908F40040B0F5004F7BD1EF
:103F20004FF4004106F5306000EB4410816073E00F
:103F300008F02000202806D1202106F5306000EB93
:103F40004410816068E008F02800002864D13448FB
:103F500082450CD908F40040B0F5004F07D14FF46A
:103F6000004106F5306000EB4410816054E004EB42
:103F7000C40105F5157000EB810706F5306000EB14
:103F80004410396A0069C0F31200081A786164B9F4
:103F9000386930B905F29C420121286802F01AFA0A
:103FA00003E07969F8680844F860E1B22846FDF753
:103FB000A7FE31E01B4882451BD108F40040B0F554
:103FC000004F07D14FF4004106F5306000EB44107C
:103FD000816021E008F02000202805D1202106F58D
:103FE000306000EB44108160E1B22846FDF788FEA6
:103FF00012E06CB904EBC40105F5157000EB81000B
:10400000006928B905F29C420021286802F0E2F913
:10401000E1B22846FDF774FE0020BDE8F0870000FD
:104020000A30544F0A31544F2DE9F84F07460E46D7
:10403000D7F80090C84606EBC60107F1140000EB64
:104040008104D4E90410884202D90120BDE8F88F28
:10405000D4E90401451AA068A84200D2A568E81C6A
:104060004FEA900A17E0D4E90401451AA068A84273
:1040700000D2A568E81C4FEA900AB879ABB2F2B258
:1040800000904846E16802F067FEE0682844E0607E
:1040900060692844606108F5106000EB4610806993
:1040A00080B2504506D3D4E90410884202D2206978
:1040B0000028D8D1D4E9040188420ED806F00F01B7
:1040C000012000FA01FB40F6340050F8080020EA15
:1040D0000B0040F6340141F808000020B6E7034623
:1040E000581A00EE900AF8EEE00AB0EE600AB5EE5B
:1040F000C00AF1EE10FA15DD00EE902AF8EEE00AA3
:10410000B4EEE00AF1EE10FA01DD114421E000EE18
:10411000901AF8EEE00A70EE800AFDEEE00A10EE6A
:10412000901A16E0504200EE900AF8EEE00AB4EE63
:10413000E00AF1EE10FA02D25042014409E000EE2A
:10414000901AF8EEE00A70EE800AFDEEE00A10EE3A
:10415000901A08467047FFF7C3FC03F001FC00F01B
:1041600001F903F027FC00BF002003F011FDFBE77D
:1041700010B500BF502080F31188BFF34F8FBFF3FD
:104180006F8F00BF03F06EFF18B14FF080500449ED
:10419000086000BF002080F3118800BF10BD000040
:1041A00004ED00E000B593B0302107A8FCF7B4F8A7
:1041B000142102A8FCF7B0F800BF002001902448A9
:1041C000006840F08050224908600846006800F00E
:1041D0008050019000BF00BF00BF002001901D482B
:1041E000006840F480401B4908600846006800F4FD
:1041F0008040019000BF00BF01200790000408909C
:1042000002200D9041050E9119210F914FF4A871D4
:104210001091022111910721129107A8FEF72EFD9E
:1042200008B1FCF72BFC0F20029002200390002025
:1042300004904FF4A05005904FF480500690052153
:1042400002A8FEF7B9FB08B1FCF718FC13B000BDDB
:1042500040380240007000400348006840F470009D
:10426000014908607047000088ED00E010B5024881
:10427000FEF7DDFF10BD00008805002010B50268C4
:104280002D4B98420ED0B0F1804F0BD02B4B984263
:1042900008D02B4B984205D02A4B984202D02A4B8B
:1042A000984203D122F070024B681A43224B984285
:1042B00020D0B0F1804F1DD0204B98421AD0204B17
:1042C000984217D01F4B984214D01F4B984211D0E0
:1042D0001E4B98420ED01E4B98420BD01D4B98425D
:1042E00008D01D4B984205D01C4B984202D01C4B65
:1042F000984203D122F44072CB681A4322F0800323
:104300004C6943EA040202608B68C3620B688362F3
:10431000094B984202D00C4B984201D10B690363C0
:1043200001234361036903F001031BB1036923F017
:104330000103036110BD00000000014000040040C3
:1043400000080040000C0040000401400040014013
:10435000004401400048014000180040001C00409B
:10436000002000401CB53C21124802F083FE3C2195
:10437000114802F07FFE0020052103468022CDE98E
:1043800000100EA1104803F0D7FD002005210346C0
:104390004022CDE900100DA10E4803F0CDFD002014
:1043A000052103464022CDE900100BA10C4803F083
:1043B000C3FD1CBD0C000020180000204D6F746F61
:1043C000725461736B000000393B000846656564F8
:1043D000446F6700650A00084D795F446F6700000D
:1043E000F13D000810B523480068006800F0100097
:1043F00010283BD11F480068C06800F01000A8B327
:104400001C48FEF7D7FF15221B491A48FFF734FA5C
:10441000194800785A2829D11848FCF757FB13216E
:10442000154802F003FE1449B1F8131088421DD15B
:10443000152211491248FBF756FF1148B0F8030046
:1044400040F2FF71081A00B20E4948800C48B0F8DB
:104450000100A0F2FF7000B208800948B0F8050022
:1044600040F2FF71081A00B2064988800148FEF741
:10447000E7FF10BDA40400204C0500200C00002024
:10448000610500207805002070B50546AC6B002062
:10449000E085E0842046FEF7D2FF70BD70B5064689
:1044A0000025B46B20684069C0F3C01594F8410042
:1044B000212805D125B10020E084204600F0C8F86D
:1044C00020684069C0F3801594F84200222805D185
:1044D00025B10020E085204600F074F8606C40F0C3
:1044E000100060642046FEF7AAFF70BD70B5054657
:1044F000AC6B2868006800F48070002842D1E08529
:1045000000BF00BF21680C3151E8001F21F480700A
:1045100021680C3141E80002002AF3D100BF00BF3E
:1045200000BF2168143151E8001F21F0010021680B
:10453000143141E80002002AF3D100BF00BF00BFE0
:104540002168143151E8001F21F040002168143126
:1045500041E80002002AF3D100BF202084F8420085
:10456000206B01280ED100BF00BF21680C3151E83B
:10457000001F21F0100021680C3141E80002002AE0
:10458000F3D100BF00206063206B012804D1A18D0E
:104590002046FEF70EFF02E02046FFF783F970BDCC
:1045A00070B50546AC6B01206063206B012805D116
:1045B000A08D41082046FEF7FCFE02E02046FFF7F2
:1045C00072F970BD00BF00BF02680C3252E8002FC4
:1045D00022F4907102680C3242E80013002BF3D1F0
:1045E00000BF00BF00BF0268143252E8002F22F063
:1045F00001010268143242E80013002BF3D100BF1E
:10460000016B01290ED100BF00BF02680C3252E8D5
:10461000002F22F0100102680C3242E80013002B38
:10462000F3D100BF202180F84210002101637047C0
:1046300010B504462068C06820F040002168C860BA
:10464000202084F841002046FFF72EF9002010BDFD
:1046500000BF00BF02680C3252E8002F22F0C001F8
:1046600002680C3242E80013002BF3D100BF202176
:1046700080F841107047F8B5044694F842002228AB
:1046800075D1A068B0F5805F0CD1206950B90025C4
:10469000A66A20684068C0F308003080A06A801CC9
:1046A000A06215E0A56A0026A068B0F5805F03D07F
:1046B000A06828B9206918B920684068287004E00B
:1046C0002068406800F07F002870A06A401CA0624B
:1046D000E08D401E80B2E085002846D12068C06889
:1046E00020F020002168C8602068C06820F4807035
:1046F0002168C8602068406920F001002168486195
:10470000202084F8420000206063206B012826D11D
:104710000020206300BF00BF21680C3151E8001F5A
:1047200021F0100021680C3141E80002002AF3D189
:1047300000BF2068006800F0100010280AD100BFF8
:104740000020009020680068009020684068009079
:1047500000BF00BFA18D2046FEF72BFE02E02046E1
:10476000FFF7A0F80020F8BD01E00020FBE70220E1
:10477000F9E700002DE9F84F04462068006920F4AD
:104780004050E1680843216808612169A068084336
:1047900061690843E169084300902068C06849F2F4
:1047A0000C618843009908432168C860206840690B
:1047B00020F44070A1690843216848617649206867
:1047C000884203D075492068884203D1FEF7EEF98C
:1047D000814602E0FEF7DAF98146E069B0F5004F64
:1047E0006CD102206168A0FB015003461920A9FB8F
:1047F000007001462A463846FBF744FD6421B0FBB1
:10480000F1F04FEA001A02206168A0FB01510B464B
:104810001920A9FB00712A463846FBF733FD834671
:1048200002206168A0FB015003461920A9FB00711A
:104830002A463846FBF726FD6421B0FBF1F000EB79
:10484000C00101EB0010ABEB8000322101EBC00096
:104850006421B0FBF1F000F0F8000AEB400A0220FE
:104860006168A0FB015003461920A9FB00700146B6
:104870002A463846FBF706FD834602206168A0FB06
:10488000015003461920A9FB00712A463846FBF760
:10489000F9FC6421B0FBF1F000EBC00101EB00106A
:1048A000ABEB8000322101EBC0006421B0FBF1F0E2
:1048B00000F007005044216888606AE004206168C5
:1048C000A0FB015003461920A9FB007001462A46AF
:1048D0003846FBF7D7FC824604206168A0FB0150F4
:1048E00003461920A9FB007001462A463846FBF70B
:1048F000C9FC6421B0FBF1F000EBC00101EB00103A
:10490000AAEB8000322101EB00106421B0FBF1F032
:1049100000F0F00A04206168A0FB01700346192032
:10492000A9FB00513A462846FBF7ACFC6421B0FBDA
:10493000F1F00AEB001A04206168A0FB01510B465C
:104940001920A9FB00712A463846FBF79BFC8346D9
:1049500004206168A0FB015003461920A9FB0070E8
:1049600001462A463846FBF78DFC6421B0FBF1F086
:1049700000EBC00101EB0010ABEB8000322101EB3A
:1049800000106421B0FBF1F000F00F0050442168EA
:104990008860BDE8F88F000000100140001401405D
:1049A00077B581B0044615460298A062A58500201F
:1049B0006064222084F842002848E16BC8632848DC
:1049C000E16B08642748E16BC8640020E16B08656F
:1049D00002AE32682368191D2B46E06BFCF7DEFE41
:1049E00000BF0020009020680068009020684068A8
:1049F000009000BF00BF206970B100BF00BF2168F8
:104A00000C3151E8001F41F4807021680C3141E8FD
:104A10000002002AF3D100BF00BF00BF216814319B
:104A200051E8001F41F001002168143141E8000203
:104A3000002AF3D100BF00BF00BF2168143151E844
:104A4000001F41F040002168143141E80002002AB3
:104A5000F3D100BF002004B070BD0000ED44000899
:104A6000A14500089D440008014691F84100212815
:104A700028D18868B0F5805F0BD1086948B90A6A07
:104A80001088C0F308000B685860086A801C086230
:104A900005E00B6A581C086218780B685860C88CCF
:104AA000401E80B2C88458B90868C06820F08000F1
:104AB0000B68D8600868C06840F040000B68D86098
:104AC000002070470220FCE770B5D0F8C822D0F86B
:104AD000D43200EB8303D3F8C032002B28D001F08E
:104AE0000F0C0CEB8C0400EB84050026AC6954B170
:104AF0000CEBCC0C02EB8C02D2F81CC0B4FBFCF229
:104B00000CFB1242B2B1C3F81462D0F8D42200EB0D
:104B10008200D0F8C402D0F810C0BCF1000F05D05C
:104B20000A4603F50471D3F80802E047002070BD7F
:104B3000032070BDAE6100231A4600F002FFF5E7C6
:104B400070B50446D4F8D40204EB8000D0F8C0520B
:104B5000002D12D0204600F0CDFDC5F80C02D4F88F
:104B6000D412D5F8040204EB8101D1F8C412CA684A
:104B700005F503719047002070BD032070BD000053
:104B800070B50446224D2046297800F0C2FC2878F2
:104B9000002600F00F0000EB800004EB800086840C
:104BA0006978204600F0B5FC687800F00F0000EB53
:104BB000800004EB8000A0F86461A978204600F032
:104BC000A8FCA87800F00F0000EB800004EB800048
:104BD0008684C684D4F8D40204EB8000D0F8C012D6
:104BE00099B1D0F8C40240688047D4F8D40204EBED
:104BF0008000D0F8C00201F036F9D4F8D40204EBFA
:104C00008000C0F8C062C4F8BC62002070BD000023
:104C10001001002010B5D0F8D41200EB8100D0F8BC
:104C2000C042002C10D0D0F8C41259B194F8000240
:104C3000FF2807D08B6894F8012221469847FF206F
:104C400084F80002002010BD032010BD0A2101805D
:104C5000004870471401002070B5064682210C48B8
:104C600000F0BAFB05460121094800F0B5FB0446F7
:104C70008121074800F0B0FB0DB11021A97140213E
:104C800004B1A18000B1818043203080004870BD14
:104C90002001002070B5064682210D4800F09CFBE3
:104CA000054601210A4800F097FB04468121084887
:104CB00000F092FB0DB11021A9714FF4007104B105
:104CC000A18000B1818043203080014870BD000088
:104CD0002001002070B5064682210C4800F07CFBC4
:104CE00005460121094800F077FB04468121074869
:104CF00000F072FB0DB11021A971402104B1A18017
:104D000000B1818043203080004870BD2001002028
:104D10002DE9F04704464FF4077001F0A5F8054669
:104D20004FF00008002D63D04FF407712846FBF7C1
:104D3000F3FAD4F8D40204EB8000C0F8C052C4F8EF
:104D4000BC52207C0127494E4FF01009002858D052
:104D5000402302223178204600F03AFD307800F0FE
:104D60000F0000EB800004EB8000878440230222C8
:104D70007178204600F02CFD707800F00F0000EBF9
:104D8000800004EB8000A0F86471B07800F00F00A0
:104D900000EB800004EB8000A0F82690082303229B
:104DA000B178204600F014FDB07800F00F0000EB61
:104DB000800004EB80008784C5F80482D4F8D40214
:104DC00004EB8000D0F8C40200688047C5F8148264
:104DD000C5F81882D5F80422002A3CD0207CC8B33C
:104DE00040237178204600F0FFFC0020BDE8F087EA
:104DF000D4F8D40204EB8000C0F8C0820220BDE8E1
:104E0000F0874FF4007302223178204600F0E0FC76
:104E1000307800F00F0000EB800004EB8000878406
:104E20004FF4007302227178204600F0D1FC7078B4
:104E300000F00F0000EB800004EB8000A0F864712C
:104E4000B07800F00F0000EB800004EB8000A0F8C9
:104E50002690A3E702E00220BDE8F0874FF400733C
:104E60007178204600F0C0FCBFE700001001002070
:104E700010B5D0F8D41200EB8101D1F8C01200298E
:104E80000CD0027CDFF82CC052B1D1F804224023B0
:104E90009CF8011000F0A8FC002010BD032010BDFC
:104EA000D1F804224FF400739CF8011000F09CFC30
:104EB000F2E7000010010020002907D0D0F8D4222A
:104EC00000EB8200C0F8C412002070470320704736
:104ED000D0F8D42200EB8200D0F8C002002803D022
:104EE000C0F804120020704703207047D0F8D43275
:104EF00000EB8300D0F8C002002805D0C0F80812EB
:104F0000C0F810220020704703207047F0B583B02E
:104F100006460C46D6F8D40206EB8000D0F8C072E4
:104F20000021029101910025002F0DD0217811F070
:104F300060023BD0202A0AD02146304600F09FF87C
:104F4000032503B02846F0BD03B00320F0BDE2887E
:104F500012B311F0800F10D0D0F8C40294F801C041
:104F60003946836860469847E288072A00D90722B5
:104F70003946304600F0A9F8E3E7607887F8000288
:104F8000E088402800D34020C2B287F80122394689
:104F9000304600F080F8D4E7D0F8C40294F801C09D
:104FA00000228368214660469847CAE7607858B176
:104FB0000128C6D00A2817D00B2825D02146304614
:104FC00000F05DF80325BCE796F89C02032805D0A5
:104FD0002146304600F053F80325B2E7022201A92A
:104FE000304600F072F8ACE796F89C02032805D032
:104FF0002146304600F043F80325A2E7012202A92A
:10500000304600F062F89CE796F89C02032898D09E
:105010002146304600F033F8032592E710B500240E
:10502000D0F8B8225268904700B10324204610BD42
:1050300090F89C22012A05D0022A03D0032A01D02D
:1050400000F01DB84988012904D10021C0F8A4123C
:1050500000F048B87047002070470020704710B536
:1050600013460A46002100F0BFFB002010BD10B51A
:1050700013460A46002100F064FC002010BD10B564
:1050800004468021204600F03DFC2046BDE810404B
:10509000002100F037BC10B50323C0F89432C0F8EB
:1050A0005821C0F85C2113460A46002100F09CFB01
:1050B000002010BD10B50521C0F8941200231A4637
:1050C000194600F091FB002010BD10B50223C0F876
:1050D00094328261C26113460A46002100F031FC1D
:1050E000002010BD10B50421C0F8941200231A4608
:1050F000194600F026FC002010BD000010B5002865
:1051000006D00A46054906A000F0B2F9034810BDD2
:105110000A46024902A000F0ABF9F7E79C450020DF
:1051200043444320436F6E66696700001220088085
:1051300000487047C800002010B5002806D00A4675
:10514000054906A000F094F9034810BD0A4602493B
:1051500002A000F08DF9F7E79C450020434443206E
:10516000496E746572666163650000000420088002
:1051700000487047C400002010B50A46024903A049
:1051800000F076F9004810BD9C45002053544D694D
:1051900063726F656C656374726F6E696373000030
:1051A00010B5002806D00A46054906A000F060F9AF
:1051B000034810BD0A46024902A000F059F9F7E77A
:1051C0009C45002053544D333220566972747561EA
:1051D0006C20436F6D506F727400000010B51A2080
:1051E0000880FBF795FC014810BD0000DC000020A2
:1051F000CA88012A01D0FFF742BF90F89C22012AF9
:1052000005D0022A03D0032A08D0FFF738BF0021B7
:105210008160012200F10801FFF757BF0122011D43
:10522000FFF753BF2DE9F84304460F4600200090D6
:10523000002600257888010A082970D2DFE801F0ED
:10524000AB040C22ABAB8B9AD4F8B412207C0A6866
:10525000694690470646A3E0207C4FF0020840B123
:10526000D4F8B802C16A68468847064686F80180C5
:1052700096E0D4F8B802816A68468847064686F800
:1052800001808DE0C0B206285FD2DFE800F0031293
:1052900021303F4FD4F8B402426822B1207C6946E5
:1052A000904706467CE039462046FFF7E8FE012598
:1052B00076E0D4F8B402826822B1207C6946904737
:1052C00006466DE039462046FFF7D9FE012567E026
:1052D000D4F8B402C26822B1207C694690470646E1
:1052E0005EE039462046FFF7CAFE012558E0D4F8B3
:1052F000B402026922B1207C6946904706464FE01D
:1053000039462046FFF7BBFE012549E0D4F8B40238
:1053100042692AB1207C69469047064640E03AE05F
:1053200039462046FFF7ABFE012539E0D4F8B40238
:10533000826922B1207C69469047064630E03946B2
:105340002046FFF79CFE01252AE039462046FFF75C
:1053500096FE012524E0207C28B139462046FFF73F
:105360008EFE01251CE0D4F8B802416B68468847E0
:10537000064615E0207C28B139462046FFF77FFE1F
:1053800001250DE0D4F8B802016B6846884706464F
:105390000721717004E039462046FFF770FE0125B1
:1053A000002D0CD1FA8892B1BDF8000048B18242BC
:1053B00000D90246009231462046FFF786FEBDE83E
:1053C000F88339462046FFF75AFEBDE8F8832046A9
:1053D000FFF788FEBDE8F88378B50E460546002441
:1053E0006A88297828468A4212D900918A420FD9C0
:1053F000694600F01BF84178052904D10446A178DC
:10540000B14205D000246988BDF800209142EFD850
:10541000204678BD00210278002A05D0491CC9B277
:10542000401C0278002AF9D1084670470A880378A0
:105430001A440A8001780844704790F89C22012A97
:1054400005D0022A03D0032A01D0FFF718BECA886C
:10545000022A01D0FFF713BE0121C160D0F8A412C7
:1054600009B10321C160022200F10C01FFF72DBE3A
:1054700070B50D46164600281BD004462046FFF79F
:10548000C9FF022101EB40003080307828700320F2
:1054900068700222207800280BD000212078A854C0
:1054A000641C501CC0B22954401CC2B22078002891
:1054B000F4D170BD01460020002906D0012905D095
:1054C000022905D0032905D0032070470320704727
:1054D000012070470320704700280FD00023C0F838
:1054E000B832C0F8C432C0F8D03209B1C0F8B41232
:1054F000012180F89C12027000F000B9032070476F
:1055000010B5D0F8C802FCF75FFCBDE81040FFF70B
:10551000D1BF10B5D0F8C802FCF721FCBDE810409F
:10552000FFF7C8BF70B504460B469446002B09D060
:1055300043F080012046FFF78EFDFF285ED0002853
:105540004CD05BE004F11400D4F894120025022939
:105550003BD18268C1688A420CD9521A8260614686
:105560002046FFF784FD00231A461946204600F026
:105570003BF92AE0914214D14068884211D3D4F813
:10558000981288420DD2002211462046FFF76FFD87
:10559000C4F8985200231A461946204600F024F910
:1055A00013E094F89C02032808D1D4F8B802C1682B
:1055B00021B1C4F8D452C1682046884780212046D2
:1055C00000F0A0F92046FFF775FD94F8A00220B185
:1055D000204600F0F5F984F8A0520FE094F89C12F0
:1055E00003290BD1D4F8B8124A693AB1C4F8D402ED
:1055F0004A69194620469047002800D1002070BD16
:1056000010B504460B4694460022002B09D003F047
:105610007F012046FFF71FFDFF2857D0002840D00C
:1056200054E004F5AA70D4F8941203294ED1C2684C
:10563000816891420AD98A1A8260C068824200D386
:10564000024661462046FFF70AFD3FE094F8AA02B1
:1056500010F01F0006D0012806D002280AD0002032
:1056600070B11AE00020FBE794F8AE122046FFF775
:10567000F4FCF5E794F8AE122046FFF7ECFCEFE7F8
:1056800094F89C12032908D1D4F8B8120A6922B1FF
:10569000C4F8D4020969204688472046FFF722FD56
:1056A00014E094F89C1203290DD1D4F8B812D1F863
:1056B00018C0BCF1000F06D0C4F8D4028A6919469C
:1056C0002046904702460AB1104610BD002010BD8A
:1056D0000020704710B50024012180F89C12D0F8FA
:1056E000B822002A04D052680179904700B10324FF
:1056F000204610BDD0F8C802FCF7A4BB10B5017855
:10570000002927D11449C1F8E004C0F8C8124FF0AD
:10571000A0400860042008710222CA71002088712C
:105720004A728872C87208738873C8730846FCF797
:10573000D3FF08B1FBF7A2F980210748FCF7A7FACD
:10574000402200210448FCF7A7FA802201210248E8
:10575000FCF7A2FA002010BDBC59002011F0800F08
:1057600001F07F01D0F8C80201EBC10100EB81001C
:1057700001D0807D704790F85602704710B5D0F880
:10578000D42200EB8202D2F8B822002A04D090F88A
:105790009C32032B02D004E0032010BD126A02B138
:1057A0009047002010BD10B5D0F8D42200EB820243
:1057B000D2F8B822002A04D090F89C32032B02D0F1
:1057C00004E0032010BD526A02B19047002010BDD2
:1057D00010B59C461346D0F8C8026246FCF73DFB64
:1057E000BDE81040FFF766BE10B5D0F8C802FCF760
:1057F0007AFBBDE81040FFF75DBE2DE9F04104469D
:105800000025012684F89C620020C4F894026060A0
:10581000C4F8A40284F8A002D4F8B802002806D084
:10582000426822B100212046904700B103250022A2
:10583000402311462046FFF7CBFFA4F864614027C0
:10584000C4F860714023002280212046FFF7C0FF8A
:10585000A68427622846BDE8F08190F89C120429AE
:1058600003D190F89D1280F89C120020704710B56B
:1058700090F89C12032905D1D0F8B81211B1C9696A
:1058800001B18847002010BD01740020704710B599
:10589000D0F8C802FDF731F8BDE81040FFF70ABEA6
:1058A00010B5044604F2AA2000F054F80120C4F810
:1058B0009402B4F8B002C4F8980294F8AA1211F055
:1058C0001F000AD001280FD0022814D02046BDE8BE
:1058D000104001F0800100F015B804F2AA21204622
:1058E000BDE8104000F026B904F2AA212046BDE828
:1058F000104000F071BA04F2AA212046BDE8104021
:1059000000F053B910B5D0F8C802FCF70FFBBDE8A2
:105910001040FFF7CFBD10B5D0F8C802FDF70EF864
:10592000BDE81040FFF7C6BD90F89C12042903D0D3
:1059300090F89C1280F89D12042180F89C1200209F
:10594000704710B5D0F8C802FCF735FBBDE8104031
:10595000FFF7B0BD0A780270491C0A784270491CF2
:105960000A784B1C1B7842EA03224280891C0A7881
:105970004B1C1B7842EA032282808A78C97842EA6B
:105980000121C180704738B50446002000900029ED
:1059900014D0C4F8B812D4F8D40204EB8000D0F8C4
:1059A000B802C16A19B168468847C4F8D002D4F871
:1059B000D802401CC4F8D802002038BD032038BDEE
:1059C0000020704770B504468888002821D1C88817
:1059D000F8B9488880281CD200F07F0594F89C0212
:1059E00003280DD084F89E5229462046FFF74FFF2A
:1059F0002046FFF777FB45B1022084F89C0270BD7A
:105A00002046BDE87040FFF73ABB012084F89C02B5
:105A100070BD2046BDE87040FFF731BB0346002053
:105A2000D3F8B822002A02D01268184610477047EF
:105A30002DE9F04104460F460025334EB978317008
:105A4000012906D939462046FFF719FB0320BDE896
:105A5000F08194F89C024FF0020802280DD0032830
:105A600025D039462046FFF70AFB31782046FFF75C
:105A7000D5FA03252846BDE8F081A1B16160204632
:105A8000FFF7CCFF0546280006D039462046FFF731
:105A9000F6FA84F89C82EDE72046FFF723FB03200B
:105AA00084F89C02E6E72046FFF71CFBE2E7C9B159
:105AB0006068884224D0C1B22046FFF7AFFA31783F
:105AC00061602046FFF7AAFF0546280014D039463A
:105AD0002046FFF7D4FA21792046FFF79FFA84F891
